:020000040000FA
:0600000059EF05F01200AB
:02002A000000D4
:04002C00D9CFE6FF43
:10003000E1CFD9FF020EE12680989298300EE66E4D
:100040004BEC05F0E5529288020EE15C02E2E16AB7
:10005000E552E16EE552E7CFD9FF1200D9CFE6FFB6
:10006000E1CFD9FFE652010EDF6E928880B8FED74D
:1000700080B802D0DF6AFCD7140EE66E65EC05F09E
:10008000E552DF5002E0000E02D0010E00D0E55232
:10009000E552E7CFD9FF1200D9CFE6FFE1CFD9FF74
:1000A000040EE126DE6ADD6A020EDB6A030EDB6AFD
:1000B000DE6ADD6ADECF14F0DDCF15F0D890155082
:1000C00004E6100E145C000E15582EE280989298EB
:1000D000020EE66E65EC05F0E552D950020FE96EAE
:1000E000DACFEAFF010E0F0B06E0EC52D890ED32AA
:1000F000EF32E806FAE19288050EE66E65EC05F04F
:10010000E55280A807D0D950020FE96EDACFEAFF96
:10011000EE52ED8E380EE66E65EC05F0E552DF2A04
:10012000010E01E3DB2AC6D7020EDBCF14F0030E6B
:10013000DBCF15F014C0F3FF15C0F4FF040EE15C33
:1001400003E200D0E16AE552E16EE552E7CFD9FF64
:100150001200D9CFE6FFE1CFD9FF020EE126DE6A19
:10016000DD6ADE6ADD6ADECF14F0DDCF15F0D890EF
:10017000155004E6080E145C000E155836E28098FF
:100180009298020EE66E65EC05F0E552010EE76E00
:10019000FD0EDBCF14F0FE0EDBCF15F0E75014168A
:1001A000156A1450E8B08088E8A08098320EE66E98
:1001B00065EC05F0E5529288020EE66E65EC05F0FE
:1001C000E552D950FD0FE96EFF0EDA20EA6E010EFE
:1001D0000F0B06E0EC52D890ED32EF32E806FAE170
:1001E000DF2A010E01E3DB2ABED7020EE15C02E248
:1001F000E16AE552E16EE552E7CFD9FF1200D9CFAF
:10020000E6FFE1CFD9FF060EE126010EF36E040EE4
:10021000F3CFDBFF050EDB6A09DF20DFCC0EE66ED5
:10022000E66A97DFE552E552440EE66EE66A91DF34
:10023000E552E552FBDE12DFCC0EE66EE66A89DFA0
:10024000E552E552BE0EE66EE66A83DFE552E55200
:10025000960EE66E65EC05F0E5521EDF020EF3CF5A
:10026000DBFF030EF4CFDBFFD950020FE96EDACFCC
:10027000EAFFFF0ED880EE540F0EED5442E2020E5C
:10028000DB1C146E030EDB1C156E020E14C0DBFFAC
:10029000030E15C0DBFF020EDB2A030E01E3DB2A8F
:1002A000020EDBCF08F0030EDBCF09F0BEEC01F04D
:1002B00007C014F008C015F009C016F00AC017F006
:1002C0000C6A0D6AC80E0E6E400E0F6E14C007F059
:1002D00015C008F016C009F017C00AF0D3EC01F001
:1002E00074EC02F0020E08C0DBFF030E09C0DBFF56
:1002F000D950020FE96EDACFEAFFEE52C00EED12CE
:1003000028D0020EDBCF08F0030EDBCF09F0BEECE5
:1003100001F007C014F008C015F009C016F00AC0BB
:1003200017F00C6A0D6AC80E0E6E400E0F6E14C0E8
:1003300007F015C008F016C009F017C00AF0D3EC9A
:1003400001F074EC02F0020E08C0DBFF030E09C0DE
:10035000DBFF020EDBCF14F0030EDBCF15F014C071
:10036000F3FF15C0F4FF060EE15C03E200D0E16A82
:0C037000E552E16EE552E7CFD9FF120024
:04037C00019E08D006
:10038000019E09AE05D0086C091EE86A0922018E9B
:1003900009C003F008C002F0136A126A8E0E046EE0
:1003A000056ABFEF02F0016AFBEC02F013EC03F008
:1003B00001B6A3EF02F001A205D001B8A3EF02F04D
:1003C000AAEF02F001AA05D001B0A3EF02F0AAEF54
:1003D00002F001B002D001A802D0B6EF02F0056A27
:1003E0000F500A24046EE86A05227E0E045EE86A55
:1003F000055A126A136A026A036A0E500902F4CFA0
:1004000003F0F3CF02F00D500902F3501326F4501D
:100410000222000E03220E500802F3501326F4505D
:100420000222000E03220C500902F3501226F4504F
:100430001322000E022203220D500802F35012264E
:10044000F4501322000E022203220E500702F35032
:100450001226F4501322000E022203220C5008022E
:10046000F4501226000E1322022203220D5007021E
:10047000F4501226000E132202220322BFEF02F0D4
:10048000006AE86A0EAE4DEF02F00B6C0C1E0D1EFA
:100490000E1E0C220D220E22001E09AE58EF02F095
:1004A000066C071E081E091E072208220922001ECC
:1004B000E2EC04F009BE6FEF02F000AE000C066C37
:1004C000071E081E091EE86A072208220922026C7C
:1004D000031E041E051E032204220522000C00BE7A
:1004E0005FEF02F00188FF0C016AFBEC02F001B63D
:1004F0007EEF02F001A20ED001B405D07F0E096E8E
:10050000FF0E086E1FD0800E096E086A1BD0096AA4
:10051000086A18D001B0FBD78F0E0A60EDD77E0EA7
:100520000A64F5D78E0E0A5C05E0D89009320832CD
:100530000A2AF8D701A406D0086C091EE86A092225
:1005400009AEE5D712007F0E0A6EFF0E096E086E27
:10055000076E12007F0E01BEFF0E0A6E02D07F0EE4
:100560000A6E800E096E086A076AF3D701AE04D0DE
:10057000800E0A6E096AF7D70A6A096AF4D703502F
:10058000021013101210F8E005BEF0D703BE0CD015
:1005900004500510EBE0D8901236133602360336BD
:1005A0000406D8A00506F2D70550D4E10428D2E00D
:1005B00012AE11D07F0E121402E113A00CD0132A38
:1005C000E86A0222032207E3D880033202321332A0
:1005D000042A0428BFE00450C9E013C007F002C099
:1005E00008F00334096E04300A6E09320A9E01BE17
:1005F0000A8EA9EF02F009360A3602E30184017E71
:1006000006E101800A6A096A086A076A12000A2874
:1006100003E0D88009321200D890093202E1018249
:100620001200018612000E360F3602E3018C017EA5
:1006300006E101880F6A0E6A0D6A0C6A12000F2823
:1006400003E0D8800E321200D8900E32EAE1018A1F
:02065000120096
:0E065200D9CFE6FFE1CFD9FF020EE126100E50
:10066000DE6E270EDD6EDFCF14F0DF06010EDBCF6E
:1006700015F001E2DB061450151001E0F4D7020E6C
:10068000E15C02E2E16AE552E16EE552E7CFD9FFB3
:100690001200D9CFE6FFE1CFD9FF040EE126B80E54
:1006A000F36E020EF3CFDBFF0B0EF36E030EF3CFF0
:1006B000DBFF06EC05F0929292949296929A9690B5
:1006C000969296949490808280848086808A84809A
:1006D000848284848280956AFFEC00F0F3CFDEFF91
:1006E000F4CFDDFFD9CFE9FFDACFEAFFEE523F0EBC
:1006F000ED16DECF14F0DDCF15F0020EDBCF16F0D5
:10070000030EDBCF17F017501518E8AE02D01534E2
:1007100004D01450165C155017580EE20F0E836E5D
:100720000A0EE66EDBEC03F0E552836A0A0EE66E13
:10073000DBEC03F0E55234D0DECF14F0DDCF15F062
:10074000020EDBCF16F0030EDBCF17F0640E165E41
:10075000000E175A15501718E8AE02D0173404D0FF
:100760001650145C175015580EE2F00E836E0A0EE8
:10077000E66EDBEC03F0E552836A0A0EE66EDBEC14
:1007800003F0E5520DD00F0E836E0A0EE66EDBEC21
:1007900003F0E552836A0A0EE66EDBEC03F0E552E5
:1007A0009BD7040EE15C02E2E16AE552E16EE5529C
:0607B000E7CFD9FF1200A3
:0A07B600D9CFE6FFE1CFD9FFFE0E18
:1007C000DBCF06F0076A086A096A100E0B6E270E67
:1007D0000C6E0D6A0E6AAAEC04F002C006F003C0AB
:1007E00007F004C008F005C009F0E80E0B6E030E18
:1007F0000C6E0D6A0E6A40EC02F00650E66E24ECB8
:1008000005F0E552E552E7CFD9FF1200D9CFE6FF58
:10081000E1CFD9FFFE0EDBCF06F0076A086A096A4E
:10082000100E0B6E270E0C6E0D6A0E6AAAEC04F009
:1008300002C006F003C007F004C008F005C009F0CC
:10084000E80E0B6E030E0C6E0D6A0E6A40EC02F0A1
:100850000650E66E3BEC05F0E552E552E7CFD9FFD6
:100860001200D9CFE6FFE1CFD9FFFE0EDBCF14F0A7
:10087000156A166A176A280E0B6E0C6A0D6A0E6AE4
:1008800014C006F015C007F016C008F017C009F034
:10089000AAEC04F002C014F003C015F004C016F076
:1008A00005C017F01450E66E65EC05F0E552E55210
:0608B000E7CFD9FF1200A2
:0A08B6002A0EF66E000EF76E000E1B
:1008C000F86E00010900F550856F0900F550866F3C
:1008D00003E1856701D03DD00900F550806F090024
:1008E000F550816F0900F550826F09000900F5503D
:1008F000E96E0900F550EA6E090009000900F5509B
:10090000836F0900F550846F09000900F6CF87F066
:10091000F7CF88F0F8CF89F080C0F6FF81C0F7FFED
:1009200082C0F8FF0001835302E1845307E009000D
:10093000F550EE6E8307F8E28407F9D787C0F6FF1B
:1009400088C0F7FF89C0F8FF00018507000E865BAD
:04095000BFD71200FB
:0C09540006500B02F3CF02F0F4CF03F0CA
:100960000C02F3500326000EF420046E06500D0214
:10097000F3500426000EF420056E06500E02F350CC
:10098000052607500B02F3500326F4500422000EF4
:10099000052207500C02F3500426F450052207509C
:1009A0000D02F350052608500B02F3500426F450B4
:1009B000052208500C02F350052609500B02F35093
:0409C00005261200F6
:0C09C400056A046A036A026A200EE76EEE
:1009D000D89006360736083609360236033604360E
:1009E00005360B50025C0C5003580D5004580E5045
:1009F000055809E30B50025E0C50035A0D50045A7F
:0C0A00000E50055A062AE72EE4D712001B
:040A0C000F0EC16E9A
:100A1000070EB46EF19E928080929292809492948E
:100A200080969296809A929A8490969084929692CA
:100A300084949694829094908292949293829380DC
:080A400093849388938A12004D
:080A4800FF0EE350196EEF0EE2
:100A500001D0F30EE76EE72E2BEF05F00C0E186EAB
:100A6000E76AE72E31EF05F0182E30EF05F0192E6A
:060A700029EF05F0120061
:0A0A7600FF0EE350196E480E01D088
:100A80004C0EE76EE72EFED7E76AE72EFED7192E4B
:060A9000F7D70000120080
:0A0A9600FF0EE350196E1B0E00D096
:100AA00001D0200EE76EE72EFED7192EFAD700D020
:020AB000120032
:0E0AB20015EE00F025EE00F0F86A019C5BECFA
:0A0AC00004F049EC03F0FDD712002A
:060ACA00FF0EE350E84EB0
:100AD0001200000000D000D000D0E82EFAD712009B
:00000001FF
